{
	"data": {
		"bytecode": {
			"linkReferences": {},
			"object": "608060405234801561000f575f80fd5b50604051610cb2380380610cb2833981810160405281019061003191906100d4565b805f806101000a81548173ffffffffffffffffffffffffffffffffffffffff021916908373ffffffffffffffffffffffffffffffffffffffff160217905550506100ff565b5f80fd5b5f73ffffffffffffffffffffffffffffffffffffffff82169050919050565b5f6100a38261007a565b9050919050565b6100b381610099565b81146100bd575f80fd5b50565b5f815190506100ce816100aa565b92915050565b5f602082840312156100e9576100e8610076565b5b5f6100f6848285016100c0565b91505092915050565b610ba68061010c5f395ff3fe60806040526004361061003e575f3560e01c806360a6673c146100425780637ad8f22414610058578063c4740eee14610074578063f578470c146100a0575b5f80fd5b34801561004d575f80fd5b506100566100de565b005b610072600480360381019061006d9190610666565b610265565b005b34801561007f575f80fd5b50610088610587565b604051610097939291906106ba565b60405180910390f35b3480156100ab575f80fd5b506100c660048036038101906100c19190610749565b6105f0565b6040516100d5939291906106ba565b60405180910390f35b5f60015f3373ffffffffffffffffffffffffffffffffffffffff1673ffffffffffffffffffffffffffffffffffffffff1681526020019081526020015f209050806002015f9054906101000a900460ff1661016e576040517f08c379a0000000000000000000000000000000000000000000000000000000008152600401610165906107ce565b60405180910390fd5b5f8054906101000a900473ffffffffffffffffffffffffffffffffffffffff1673ffffffffffffffffffffffffffffffffffffffff1663a56a91c5825f01546040518263ffffffff1660e01b81526004016101c991906107ec565b5f604051808303815f87803b1580156101e0575f80fd5b505af11580156101f2573d5f803e3d5ffd5b505050503373ffffffffffffffffffffffffffffffffffffffff167ffbd2e213c8edc63162c1aa9c775516d81d11cb08f5187e23a496ae7b73d23466825f015460405161023f91906107ec565b60405180910390a25f816002015f6101000a81548160ff02191690831515021790555050565b5f151560015f3373ffffffffffffffffffffffffffffffffffffffff1673ffffffffffffffffffffffffffffffffffffffff1681526020019081526020015f206002015f9054906101000a900460ff161515146102f7576040517f08c379a00000000000000000000000000000000000000000000000000000000081526004016102ee90610875565b60405180910390fd5b5f805f8054906101000a900473ffffffffffffffffffffffffffffffffffffffff1673ffffffffffffffffffffffffffffffffffffffff1663fee618f6846040518263ffffffff1660e01b815260040161035191906107ec565b5f60405180830381865afa15801561036b573d5f803e3d5ffd5b505050506040513d5f823e3d601f19601f820116820180604052508101906103939190610a0d565b925092505080156103d9576040517f08c379a00000000000000000000000000000000000000000000000000000000081526004016103d090610ac3565b60405180910390fd5b8134101561041c576040517f08c379a000000000000000000000000000000000000000000000000000000000815260040161041390610b2b565b60405180910390fd5b5f8054906101000a900473ffffffffffffffffffffffffffffffffffffffff1673ffffffffffffffffffffffffffffffffffffffff16637ad8f22434856040518363ffffffff1660e01b815260040161047591906107ec565b5f604051808303818588803b15801561048c575f80fd5b505af115801561049e573d5f803e3d5ffd5b505050505060405180606001604052808481526020014281526020016001151581525060015f3373ffffffffffffffffffffffffffffffffffffffff1673ffffffffffffffffffffffffffffffffffffffff1681526020019081526020015f205f820151815f0155602082015181600101556040820151816002015f6101000a81548160ff0219169083151502179055509050503373ffffffffffffffffffffffffffffffffffffffff167fabbb103bc3d5dd5c36c3a0dbcb3bcef8158419c90cbc424f1ad059b3e6bd2408844260405161057a929190610b49565b60405180910390a2505050565b5f805f8060015f3373ffffffffffffffffffffffffffffffffffffffff1673ffffffffffffffffffffffffffffffffffffffff1681526020019081526020015f209050805f01548160010154826002015f9054906101000a900460ff1693509350935050909192565b6001602052805f5260405f205f91509050805f015490806001015490806002015f9054906101000a900460ff16905083565b5f604051905090565b5f80fd5b5f80fd5b5f819050919050565b61064581610633565b811461064f575f80fd5b50565b5f813590506106608161063c565b92915050565b5f6020828403121561067b5761067a61062b565b5b5f61068884828501610652565b91505092915050565b61069a81610633565b82525050565b5f8115159050919050565b6106b4816106a0565b82525050565b5f6060820190506106cd5f830186610691565b6106da6020830185610691565b6106e760408301846106ab565b949350505050565b5f73ffffffffffffffffffffffffffffffffffffffff82169050919050565b5f610718826106ef565b9050919050565b6107288161070e565b8114610732575f80fd5b50565b5f813590506107438161071f565b92915050565b5f6020828403121561075e5761075d61062b565b5b5f61076b84828501610735565b91505092915050565b5f82825260208201905092915050565b7f4e6f206163746976652072656e74616c20666f756e64000000000000000000005f82015250565b5f6107b8601683610774565b91506107c382610784565b602082019050919050565b5f6020820190508181035f8301526107e5816107ac565b9050919050565b5f6020820190506107ff5f830184610691565b92915050565b7f596f7520616c7265616479206861766520616e206163746976652072656e74615f8201527f6c00000000000000000000000000000000000000000000000000000000000000602082015250565b5f61085f602183610774565b915061086a82610805565b604082019050919050565b5f6020820190508181035f83015261088c81610853565b9050919050565b5f80fd5b5f80fd5b5f601f19601f8301169050919050565b7f4e487b71000000000000000000000000000000000000000000000000000000005f52604160045260245ffd5b6108e18261089b565b810181811067ffffffffffffffff82111715610900576108ff6108ab565b5b80604052505050565b5f610912610622565b905061091e82826108d8565b919050565b5f67ffffffffffffffff82111561093d5761093c6108ab565b5b6109468261089b565b9050602081019050919050565b8281835e5f83830152505050565b5f61097361096e84610923565b610909565b90508281526020810184848401111561098f5761098e610897565b5b61099a848285610953565b509392505050565b5f82601f8301126109b6576109b5610893565b5b81516109c6848260208601610961565b91505092915050565b5f815190506109dd8161063c565b92915050565b6109ec816106a0565b81146109f6575f80fd5b50565b5f81519050610a07816109e3565b92915050565b5f805f60608486031215610a2457610a2361062b565b5b5f84015167ffffffffffffffff811115610a4157610a4061062f565b5b610a4d868287016109a2565b9350506020610a5e868287016109cf565b9250506040610a6f868287016109f9565b9150509250925092565b7f42696b6520697320616c72656164792072656e746564000000000000000000005f82015250565b5f610aad601683610774565b9150610ab882610a79565b602082019050919050565b5f6020820190508181035f830152610ada81610aa1565b9050919050565b7f496e73756666696369656e742072656e74616c206665650000000000000000005f82015250565b5f610b15601783610774565b9150610b2082610ae1565b602082019050919050565b5f6020820190508181035f830152610b4281610b09565b9050919050565b5f604082019050610b5c5f830185610691565b610b696020830184610691565b939250505056fea26469706673582212204d63ca15f60a38ae60b857155447666b2d869c2eb2ad427fcc4f102ddc95b49664736f6c634300081a0033",
			"opcodes": "PUSH1 0x80 PUSH1 0x40 MSTORE CALLVALUE DUP1 ISZERO PUSH2 0xF JUMPI PUSH0 DUP1 REVERT JUMPDEST POP PUSH1 0x40 MLOAD PUSH2 0xCB2 CODESIZE SUB DUP1 PUSH2 0xCB2 DUP4 CODECOPY DUP2 DUP2 ADD PUSH1 0x40 MSTORE DUP2 ADD SWAP1 PUSH2 0x31 SWAP2 SWAP1 PUSH2 0xD4 JUMP JUMPDEST DUP1 PUSH0 DUP1 PUSH2 0x100 EXP DUP2 SLOAD DUP2 PUSH20 0xFFFFFFFFFFFFFFFFFFFFFFFFFFFFFFFFFFFFFFFF MUL NOT AND SWAP1 DUP4 PUSH20 0xFFFFFFFFFFFFFFFFFFFFFFFFFFFFFFFFFFFFFFFF AND MUL OR SWAP1 SSTORE POP POP PUSH2 0xFF JUMP JUMPDEST PUSH0 DUP1 REVERT JUMPDEST PUSH0 PUSH20 0xFFFFFFFFFFFFFFFFFFFFFFFFFFFFFFFFFFFFFFFF DUP3 AND SWAP1 POP SWAP2 SWAP1 POP JUMP JUMPDEST PUSH0 PUSH2 0xA3 DUP3 PUSH2 0x7A JUMP JUMPDEST SWAP1 POP SWAP2 SWAP1 POP JUMP JUMPDEST PUSH2 0xB3 DUP2 PUSH2 0x99 JUMP JUMPDEST DUP2 EQ PUSH2 0xBD JUMPI PUSH0 DUP1 REVERT JUMPDEST POP JUMP JUMPDEST PUSH0 DUP2 MLOAD SWAP1 POP PUSH2 0xCE DUP2 PUSH2 0xAA JUMP JUMPDEST SWAP3 SWAP2 POP POP JUMP JUMPDEST PUSH0 PUSH1 0x20 DUP3 DUP5 SUB SLT ISZERO PUSH2 0xE9 JUMPI PUSH2 0xE8 PUSH2 0x76 JUMP JUMPDEST JUMPDEST PUSH0 PUSH2 0xF6 DUP5 DUP3 DUP6 ADD PUSH2 0xC0 JUMP JUMPDEST SWAP2 POP POP SWAP3 SWAP2 POP POP JUMP JUMPDEST PUSH2 0xBA6 DUP1 PUSH2 0x10C PUSH0 CODECOPY PUSH0 RETURN INVALID PUSH1 0x80 PUSH1 0x40 MSTORE PUSH1 0x4 CALLDATASIZE LT PUSH2 0x3E JUMPI PUSH0 CALLDATALOAD PUSH1 0xE0 SHR DUP1 PUSH4 0x60A6673C EQ PUSH2 0x42 JUMPI DUP1 PUSH4 0x7AD8F224 EQ PUSH2 0x58 JUMPI DUP1 PUSH4 0xC4740EEE EQ PUSH2 0x74 JUMPI DUP1 PUSH4 0xF578470C EQ PUSH2 0xA0 JUMPI JUMPDEST PUSH0 DUP1 REVERT JUMPDEST CALLVALUE DUP1 ISZERO PUSH2 0x4D JUMPI PUSH0 DUP1 REVERT JUMPDEST POP PUSH2 0x56 PUSH2 0xDE JUMP JUMPDEST STOP JUMPDEST PUSH2 0x72 PUSH1 0x4 DUP1 CALLDATASIZE SUB DUP2 ADD SWAP1 PUSH2 0x6D SWAP2 SWAP1 PUSH2 0x666 JUMP JUMPDEST PUSH2 0x265 JUMP JUMPDEST STOP JUMPDEST CALLVALUE DUP1 ISZERO PUSH2 0x7F JUMPI PUSH0 DUP1 REVERT JUMPDEST POP PUSH2 0x88 PUSH2 0x587 JUMP JUMPDEST PUSH1 0x40 MLOAD PUSH2 0x97 SWAP4 SWAP3 SWAP2 SWAP1 PUSH2 0x6BA JUMP JUMPDEST PUSH1 0x40 MLOAD DUP1 SWAP2 SUB SWAP1 RETURN JUMPDEST CALLVALUE DUP1 ISZERO PUSH2 0xAB JUMPI PUSH0 DUP1 REVERT JUMPDEST POP PUSH2 0xC6 PUSH1 0x4 DUP1 CALLDATASIZE SUB DUP2 ADD SWAP1 PUSH2 0xC1 SWAP2 SWAP1 PUSH2 0x749 JUMP JUMPDEST PUSH2 0x5F0 JUMP JUMPDEST PUSH1 0x40 MLOAD PUSH2 0xD5 SWAP4 SWAP3 SWAP2 SWAP1 PUSH2 0x6BA JUMP JUMPDEST PUSH1 0x40 MLOAD DUP1 SWAP2 SUB SWAP1 RETURN JUMPDEST PUSH0 PUSH1 0x1 PUSH0 CALLER PUSH20 0xFFFFFFFFFFFFFFFFFFFFFFFFFFFFFFFFFFFFFFFF AND PUSH20 0xFFFFFFFFFFFFFFFFFFFFFFFFFFFFFFFFFFFFFFFF AND DUP2 MSTORE PUSH1 0x20 ADD SWAP1 DUP2 MSTORE PUSH1 0x20 ADD PUSH0 KECCAK256 SWAP1 POP DUP1 PUSH1 0x2 ADD PUSH0 SWAP1 SLOAD SWAP1 PUSH2 0x100 EXP SWAP1 DIV PUSH1 0xFF AND PUSH2 0x16E JUMPI PUSH1 0x40 MLOAD PUSH32 0x8C379A000000000000000000000000000000000000000000000000000000000 DUP2 MSTORE PUSH1 0x4 ADD PUSH2 0x165 SWAP1 PUSH2 0x7CE JUMP JUMPDEST PUSH1 0x40 MLOAD DUP1 SWAP2 SUB SWAP1 REVERT JUMPDEST PUSH0 DUP1 SLOAD SWAP1 PUSH2 0x100 EXP SWAP1 DIV PUSH20 0xFFFFFFFFFFFFFFFFFFFFFFFFFFFFFFFFFFFFFFFF AND PUSH20 0xFFFFFFFFFFFFFFFFFFFFFFFFFFFFFFFFFFFFFFFF AND PUSH4 0xA56A91C5 DUP3 PUSH0 ADD SLOAD PUSH1 0x40 MLOAD DUP3 PUSH4 0xFFFFFFFF AND PUSH1 0xE0 SHL DUP2 MSTORE PUSH1 0x4 ADD PUSH2 0x1C9 SWAP2 SWAP1 PUSH2 0x7EC JUMP JUMPDEST PUSH0 PUSH1 0x40 MLOAD DUP1 DUP4 SUB DUP2 PUSH0 DUP8 DUP1 EXTCODESIZE ISZERO DUP1 ISZERO PUSH2 0x1E0 JUMPI PUSH0 DUP1 REVERT JUMPDEST POP GAS CALL ISZERO DUP1 ISZERO PUSH2 0x1F2 JUMPI RETURNDATASIZE PUSH0 DUP1 RETURNDATACOPY RETURNDATASIZE PUSH0 REVERT JUMPDEST POP POP POP POP CALLER PUSH20 0xFFFFFFFFFFFFFFFFFFFFFFFFFFFFFFFFFFFFFFFF AND PUSH32 0xFBD2E213C8EDC63162C1AA9C775516D81D11CB08F5187E23A496AE7B73D23466 DUP3 PUSH0 ADD SLOAD PUSH1 0x40 MLOAD PUSH2 0x23F SWAP2 SWAP1 PUSH2 0x7EC JUMP JUMPDEST PUSH1 0x40 MLOAD DUP1 SWAP2 SUB SWAP1 LOG2 PUSH0 DUP2 PUSH1 0x2 ADD PUSH0 PUSH2 0x100 EXP DUP2 SLOAD DUP2 PUSH1 0xFF MUL NOT AND SWAP1 DUP4 ISZERO ISZERO MUL OR SWAP1 SSTORE POP POP JUMP JUMPDEST PUSH0 ISZERO ISZERO PUSH1 0x1 PUSH0 CALLER PUSH20 0xFFFFFFFFFFFFFFFFFFFFFFFFFFFFFFFFFFFFFFFF AND PUSH20 0xFFFFFFFFFFFFFFFFFFFFFFFFFFFFFFFFFFFFFFFF AND DUP2 MSTORE PUSH1 0x20 ADD SWAP1 DUP2 MSTORE PUSH1 0x20 ADD PUSH0 KECCAK256 PUSH1 0x2 ADD PUSH0 SWAP1 SLOAD SWAP1 PUSH2 0x100 EXP SWAP1 DIV PUSH1 0xFF AND ISZERO ISZERO EQ PUSH2 0x2F7 JUMPI PUSH1 0x40 MLOAD PUSH32 0x8C379A000000000000000000000000000000000000000000000000000000000 DUP2 MSTORE PUSH1 0x4 ADD PUSH2 0x2EE SWAP1 PUSH2 0x875 JUMP JUMPDEST PUSH1 0x40 MLOAD DUP1 SWAP2 SUB SWAP1 REVERT JUMPDEST PUSH0 DUP1 PUSH0 DUP1 SLOAD SWAP1 PUSH2 0x100 EXP SWAP1 DIV PUSH20 0xFFFFFFFFFFFFFFFFFFFFFFFFFFFFFFFFFFFFFFFF AND PUSH20 0xFFFFFFFFFFFFFFFFFFFFFFFFFFFFFFFFFFFFFFFF AND PUSH4 0xFEE618F6 DUP5 PUSH1 0x40 MLOAD DUP3 PUSH4 0xFFFFFFFF AND PUSH1 0xE0 SHL DUP2 MSTORE PUSH1 0x4 ADD PUSH2 0x351 SWAP2 SWAP1 PUSH2 0x7EC JUMP JUMPDEST PUSH0 PUSH1 0x40 MLOAD DUP1 DUP4 SUB DUP2 DUP7 GAS STATICCALL ISZERO DUP1 ISZERO PUSH2 0x36B JUMPI RETURNDATASIZE PUSH0 DUP1 RETURNDATACOPY RETURNDATASIZE PUSH0 REVERT JUMPDEST POP POP POP POP PUSH1 0x40 MLOAD RETURNDATASIZE PUSH0 DUP3 RETURNDATACOPY RETURNDATASIZE PUSH1 0x1F NOT PUSH1 0x1F DUP3 ADD AND DUP3 ADD DUP1 PUSH1 0x40 MSTORE POP DUP2 ADD SWAP1 PUSH2 0x393 SWAP2 SWAP1 PUSH2 0xA0D JUMP JUMPDEST SWAP3 POP SWAP3 POP POP DUP1 ISZERO PUSH2 0x3D9 JUMPI PUSH1 0x40 MLOAD PUSH32 0x8C379A000000000000000000000000000000000000000000000000000000000 DUP2 MSTORE PUSH1 0x4 ADD PUSH2 0x3D0 SWAP1 PUSH2 0xAC3 JUMP JUMPDEST PUSH1 0x40 MLOAD DUP1 SWAP2 SUB SWAP1 REVERT JUMPDEST DUP2 CALLVALUE LT ISZERO PUSH2 0x41C JUMPI PUSH1 0x40 MLOAD PUSH32 0x8C379A000000000000000000000000000000000000000000000000000000000 DUP2 MSTORE PUSH1 0x4 ADD PUSH2 0x413 SWAP1 PUSH2 0xB2B JUMP JUMPDEST PUSH1 0x40 MLOAD DUP1 SWAP2 SUB SWAP1 REVERT JUMPDEST PUSH0 DUP1 SLOAD SWAP1 PUSH2 0x100 EXP SWAP1 DIV PUSH20 0xFFFFFFFFFFFFFFFFFFFFFFFFFFFFFFFFFFFFFFFF AND PUSH20 0xFFFFFFFFFFFFFFFFFFFFFFFFFFFFFFFFFFFFFFFF AND PUSH4 0x7AD8F224 CALLVALUE DUP6 PUSH1 0x40 MLOAD DUP4 PUSH4 0xFFFFFFFF AND PUSH1 0xE0 SHL DUP2 MSTORE PUSH1 0x4 ADD PUSH2 0x475 SWAP2 SWAP1 PUSH2 0x7EC JUMP JUMPDEST PUSH0 PUSH1 0x40 MLOAD DUP1 DUP4 SUB DUP2 DUP6 DUP9 DUP1 EXTCODESIZE ISZERO DUP1 ISZERO PUSH2 0x48C JUMPI PUSH0 DUP1 REVERT JUMPDEST POP GAS CALL ISZERO DUP1 ISZERO PUSH2 0x49E JUMPI RETURNDATASIZE PUSH0 DUP1 RETURNDATACOPY RETURNDATASIZE PUSH0 REVERT JUMPDEST POP POP POP POP POP PUSH1 0x40 MLOAD DUP1 PUSH1 0x60 ADD PUSH1 0x40 MSTORE DUP1 DUP5 DUP2 MSTORE PUSH1 0x20 ADD TIMESTAMP DUP2 MSTORE PUSH1 0x20 ADD PUSH1 0x1 ISZERO ISZERO DUP2 MSTORE POP PUSH1 0x1 PUSH0 CALLER PUSH20 0xFFFFFFFFFFFFFFFFFFFFFFFFFFFFFFFFFFFFFFFF AND PUSH20 0xFFFFFFFFFFFFFFFFFFFFFFFFFFFFFFFFFFFFFFFF AND DUP2 MSTORE PUSH1 0x20 ADD SWAP1 DUP2 MSTORE PUSH1 0x20 ADD PUSH0 KECCAK256 PUSH0 DUP3 ADD MLOAD DUP2 PUSH0 ADD SSTORE PUSH1 0x20 DUP3 ADD MLOAD DUP2 PUSH1 0x1 ADD SSTORE PUSH1 0x40 DUP3 ADD MLOAD DUP2 PUSH1 0x2 ADD PUSH0 PUSH2 0x100 EXP DUP2 SLOAD DUP2 PUSH1 0xFF MUL NOT AND SWAP1 DUP4 ISZERO ISZERO MUL OR SWAP1 SSTORE POP SWAP1 POP POP CALLER PUSH20 0xFFFFFFFFFFFFFFFFFFFFFFFFFFFFFFFFFFFFFFFF AND PUSH32 0xABBB103BC3D5DD5C36C3A0DBCB3BCEF8158419C90CBC424F1AD059B3E6BD2408 DUP5 TIMESTAMP PUSH1 0x40 MLOAD PUSH2 0x57A SWAP3 SWAP2 SWAP1 PUSH2 0xB49 JUMP JUMPDEST PUSH1 0x40 MLOAD DUP1 SWAP2 SUB SWAP1 LOG2 POP POP POP JUMP JUMPDEST PUSH0 DUP1 PUSH0 DUP1 PUSH1 0x1 PUSH0 CALLER PUSH20 0xFFFFFFFFFFFFFFFFFFFFFFFFFFFFFFFFFFFFFFFF AND PUSH20 0xFFFFFFFFFFFFFFFFFFFFFFFFFFFFFFFFFFFFFFFF AND DUP2 MSTORE PUSH1 0x20 ADD SWAP1 DUP2 MSTORE PUSH1 0x20 ADD PUSH0 KECCAK256 SWAP1 POP DUP1 PUSH0 ADD SLOAD DUP2 PUSH1 0x1 ADD SLOAD DUP3 PUSH1 0x2 ADD PUSH0 SWAP1 SLOAD SWAP1 PUSH2 0x100 EXP SWAP1 DIV PUSH1 0xFF AND SWAP4 POP SWAP4 POP SWAP4 POP POP SWAP1 SWAP2 SWAP3 JUMP JUMPDEST PUSH1 0x1 PUSH1 0x20 MSTORE DUP1 PUSH0 MSTORE PUSH1 0x40 PUSH0 KECCAK256 PUSH0 SWAP2 POP SWAP1 POP DUP1 PUSH0 ADD SLOAD SWAP1 DUP1 PUSH1 0x1 ADD SLOAD SWAP1 DUP1 PUSH1 0x2 ADD PUSH0 SWAP1 SLOAD SWAP1 PUSH2 0x100 EXP SWAP1 DIV PUSH1 0xFF AND SWAP1 POP DUP4 JUMP JUMPDEST PUSH0 PUSH1 0x40 MLOAD SWAP1 POP SWAP1 JUMP JUMPDEST PUSH0 DUP1 REVERT JUMPDEST PUSH0 DUP1 REVERT JUMPDEST PUSH0 DUP2 SWAP1 POP SWAP2 SWAP1 POP JUMP JUMPDEST PUSH2 0x645 DUP2 PUSH2 0x633 JUMP JUMPDEST DUP2 EQ PUSH2 0x64F JUMPI PUSH0 DUP1 REVERT JUMPDEST POP JUMP JUMPDEST PUSH0 DUP2 CALLDATALOAD SWAP1 POP PUSH2 0x660 DUP2 PUSH2 0x63C JUMP JUMPDEST SWAP3 SWAP2 POP POP JUMP JUMPDEST PUSH0 PUSH1 0x20 DUP3 DUP5 SUB SLT ISZERO PUSH2 0x67B JUMPI PUSH2 0x67A PUSH2 0x62B JUMP JUMPDEST JUMPDEST PUSH0 PUSH2 0x688 DUP5 DUP3 DUP6 ADD PUSH2 0x652 JUMP JUMPDEST SWAP2 POP POP SWAP3 SWAP2 POP POP JUMP JUMPDEST PUSH2 0x69A DUP2 PUSH2 0x633 JUMP JUMPDEST DUP3 MSTORE POP POP JUMP JUMPDEST PUSH0 DUP2 ISZERO ISZERO SWAP1 POP SWAP2 SWAP1 POP JUMP JUMPDEST PUSH2 0x6B4 DUP2 PUSH2 0x6A0 JUMP JUMPDEST DUP3 MSTORE POP POP JUMP JUMPDEST PUSH0 PUSH1 0x60 DUP3 ADD SWAP1 POP PUSH2 0x6CD PUSH0 DUP4 ADD DUP7 PUSH2 0x691 JUMP JUMPDEST PUSH2 0x6DA PUSH1 0x20 DUP4 ADD DUP6 PUSH2 0x691 JUMP JUMPDEST PUSH2 0x6E7 PUSH1 0x40 DUP4 ADD DUP5 PUSH2 0x6AB JUMP JUMPDEST SWAP5 SWAP4 POP POP POP POP JUMP JUMPDEST PUSH0 PUSH20 0xFFFFFFFFFFFFFFFFFFFFFFFFFFFFFFFFFFFFFFFF DUP3 AND SWAP1 POP SWAP2 SWAP1 POP JUMP JUMPDEST PUSH0 PUSH2 0x718 DUP3 PUSH2 0x6EF JUMP JUMPDEST SWAP1 POP SWAP2 SWAP1 POP JUMP JUMPDEST PUSH2 0x728 DUP2 PUSH2 0x70E JUMP JUMPDEST DUP2 EQ PUSH2 0x732 JUMPI PUSH0 DUP1 REVERT JUMPDEST POP JUMP JUMPDEST PUSH0 DUP2 CALLDATALOAD SWAP1 POP PUSH2 0x743 DUP2 PUSH2 0x71F JUMP JUMPDEST SWAP3 SWAP2 POP POP JUMP JUMPDEST PUSH0 PUSH1 0x20 DUP3 DUP5 SUB SLT ISZERO PUSH2 0x75E JUMPI PUSH2 0x75D PUSH2 0x62B JUMP JUMPDEST JUMPDEST PUSH0 PUSH2 0x76B DUP5 DUP3 DUP6 ADD PUSH2 0x735 JUMP JUMPDEST SWAP2 POP POP SWAP3 SWAP2 POP POP JUMP JUMPDEST PUSH0 DUP3 DUP3 MSTORE PUSH1 0x20 DUP3 ADD SWAP1 POP SWAP3 SWAP2 POP POP JUMP JUMPDEST PUSH32 0x4E6F206163746976652072656E74616C20666F756E6400000000000000000000 PUSH0 DUP3 ADD MSTORE POP JUMP JUMPDEST PUSH0 PUSH2 0x7B8 PUSH1 0x16 DUP4 PUSH2 0x774 JUMP JUMPDEST SWAP2 POP PUSH2 0x7C3 DUP3 PUSH2 0x784 JUMP JUMPDEST PUSH1 0x20 DUP3 ADD SWAP1 POP SWAP2 SWAP1 POP JUMP JUMPDEST PUSH0 PUSH1 0x20 DUP3 ADD SWAP1 POP DUP2 DUP2 SUB PUSH0 DUP4 ADD MSTORE PUSH2 0x7E5 DUP2 PUSH2 0x7AC JUMP JUMPDEST SWAP1 POP SWAP2 SWAP1 POP JUMP JUMPDEST PUSH0 PUSH1 0x20 DUP3 ADD SWAP1 POP PUSH2 0x7FF PUSH0 DUP4 ADD DUP5 PUSH2 0x691 JUMP JUMPDEST SWAP3 SWAP2 POP POP JUMP JUMPDEST PUSH32 0x596F7520616C7265616479206861766520616E206163746976652072656E7461 PUSH0 DUP3 ADD MSTORE PUSH32 0x6C00000000000000000000000000000000000000000000000000000000000000 PUSH1 0x20 DUP3 ADD MSTORE POP JUMP JUMPDEST PUSH0 PUSH2 0x85F PUSH1 0x21 DUP4 PUSH2 0x774 JUMP JUMPDEST SWAP2 POP PUSH2 0x86A DUP3 PUSH2 0x805 JUMP JUMPDEST PUSH1 0x40 DUP3 ADD SWAP1 POP SWAP2 SWAP1 POP JUMP JUMPDEST PUSH0 PUSH1 0x20 DUP3 ADD SWAP1 POP DUP2 DUP2 SUB PUSH0 DUP4 ADD MSTORE PUSH2 0x88C DUP2 PUSH2 0x853 JUMP JUMPDEST SWAP1 POP SWAP2 SWAP1 POP JUMP JUMPDEST PUSH0 DUP1 REVERT JUMPDEST PUSH0 DUP1 REVERT JUMPDEST PUSH0 PUSH1 0x1F NOT PUSH1 0x1F DUP4 ADD AND SWAP1 POP SWAP2 SWAP1 POP JUMP JUMPDEST PUSH32 0x4E487B7100000000000000000000000000000000000000000000000000000000 PUSH0 MSTORE PUSH1 0x41 PUSH1 0x4 MSTORE PUSH1 0x24 PUSH0 REVERT JUMPDEST PUSH2 0x8E1 DUP3 PUSH2 0x89B JUMP JUMPDEST DUP2 ADD DUP2 DUP2 LT PUSH8 0xFFFFFFFFFFFFFFFF DUP3 GT OR ISZERO PUSH2 0x900 JUMPI PUSH2 0x8FF PUSH2 0x8AB JUMP JUMPDEST JUMPDEST DUP1 PUSH1 0x40 MSTORE POP POP POP JUMP JUMPDEST PUSH0 PUSH2 0x912 PUSH2 0x622 JUMP JUMPDEST SWAP1 POP PUSH2 0x91E DUP3 DUP3 PUSH2 0x8D8 JUMP JUMPDEST SWAP2 SWAP1 POP JUMP JUMPDEST PUSH0 PUSH8 0xFFFFFFFFFFFFFFFF DUP3 GT ISZERO PUSH2 0x93D JUMPI PUSH2 0x93C PUSH2 0x8AB JUMP JUMPDEST JUMPDEST PUSH2 0x946 DUP3 PUSH2 0x89B JUMP JUMPDEST SWAP1 POP PUSH1 0x20 DUP2 ADD SWAP1 POP SWAP2 SWAP1 POP JUMP JUMPDEST DUP3 DUP2 DUP4 MCOPY PUSH0 DUP4 DUP4 ADD MSTORE POP POP POP JUMP JUMPDEST PUSH0 PUSH2 0x973 PUSH2 0x96E DUP5 PUSH2 0x923 JUMP JUMPDEST PUSH2 0x909 JUMP JUMPDEST SWAP1 POP DUP3 DUP2 MSTORE PUSH1 0x20 DUP2 ADD DUP5 DUP5 DUP5 ADD GT ISZERO PUSH2 0x98F JUMPI PUSH2 0x98E PUSH2 0x897 JUMP JUMPDEST JUMPDEST PUSH2 0x99A DUP5 DUP3 DUP6 PUSH2 0x953 JUMP JUMPDEST POP SWAP4 SWAP3 POP POP POP JUMP JUMPDEST PUSH0 DUP3 PUSH1 0x1F DUP4 ADD SLT PUSH2 0x9B6 JUMPI PUSH2 0x9B5 PUSH2 0x893 JUMP JUMPDEST JUMPDEST DUP2 MLOAD PUSH2 0x9C6 DUP5 DUP3 PUSH1 0x20 DUP7 ADD PUSH2 0x961 JUMP JUMPDEST SWAP2 POP POP SWAP3 SWAP2 POP POP JUMP JUMPDEST PUSH0 DUP2 MLOAD SWAP1 POP PUSH2 0x9DD DUP2 PUSH2 0x63C JUMP JUMPDEST SWAP3 SWAP2 POP POP JUMP JUMPDEST PUSH2 0x9EC DUP2 PUSH2 0x6A0 JUMP JUMPDEST DUP2 EQ PUSH2 0x9F6 JUMPI PUSH0 DUP1 REVERT JUMPDEST POP JUMP JUMPDEST PUSH0 DUP2 MLOAD SWAP1 POP PUSH2 0xA07 DUP2 PUSH2 0x9E3 JUMP JUMPDEST SWAP3 SWAP2 POP POP JUMP JUMPDEST PUSH0 DUP1 PUSH0 PUSH1 0x60 DUP5 DUP7 SUB SLT ISZERO PUSH2 0xA24 JUMPI PUSH2 0xA23 PUSH2 0x62B JUMP JUMPDEST JUMPDEST PUSH0 DUP5 ADD MLOAD PUSH8 0xFFFFFFFFFFFFFFFF DUP2 GT ISZERO PUSH2 0xA41 JUMPI PUSH2 0xA40 PUSH2 0x62F JUMP JUMPDEST JUMPDEST PUSH2 0xA4D DUP7 DUP3 DUP8 ADD PUSH2 0x9A2 JUMP JUMPDEST SWAP4 POP POP PUSH1 0x20 PUSH2 0xA5E DUP7 DUP3 DUP8 ADD PUSH2 0x9CF JUMP JUMPDEST SWAP3 POP POP PUSH1 0x40 PUSH2 0xA6F DUP7 DUP3 DUP8 ADD PUSH2 0x9F9 JUMP JUMPDEST SWAP2 POP POP SWAP3 POP SWAP3 POP SWAP3 JUMP JUMPDEST PUSH32 0x42696B6520697320616C72656164792072656E74656400000000000000000000 PUSH0 DUP3 ADD MSTORE POP JUMP JUMPDEST PUSH0 PUSH2 0xAAD PUSH1 0x16 DUP4 PUSH2 0x774 JUMP JUMPDEST SWAP2 POP PUSH2 0xAB8 DUP3 PUSH2 0xA79 JUMP JUMPDEST PUSH1 0x20 DUP3 ADD SWAP1 POP SWAP2 SWAP1 POP JUMP JUMPDEST PUSH0 PUSH1 0x20 DUP3 ADD SWAP1 POP DUP2 DUP2 SUB PUSH0 DUP4 ADD MSTORE PUSH2 0xADA DUP2 PUSH2 0xAA1 JUMP JUMPDEST SWAP1 POP SWAP2 SWAP1 POP JUMP JUMPDEST PUSH32 0x496E73756666696369656E742072656E74616C20666565000000000000000000 PUSH0 DUP3 ADD MSTORE POP JUMP JUMPDEST PUSH0 PUSH2 0xB15 PUSH1 0x17 DUP4 PUSH2 0x774 JUMP JUMPDEST SWAP2 POP PUSH2 0xB20 DUP3 PUSH2 0xAE1 JUMP JUMPDEST PUSH1 0x20 DUP3 ADD SWAP1 POP SWAP2 SWAP1 POP JUMP JUMPDEST PUSH0 PUSH1 0x20 DUP3 ADD SWAP1 POP DUP2 DUP2 SUB PUSH0 DUP4 ADD MSTORE PUSH2 0xB42 DUP2 PUSH2 0xB09 JUMP JUMPDEST SWAP1 POP SWAP2 SWAP1 POP JUMP JUMPDEST PUSH0 PUSH1 0x40 DUP3 ADD SWAP1 POP PUSH2 0xB5C PUSH0 DUP4 ADD DUP6 PUSH2 0x691 JUMP JUMPDEST PUSH2 0xB69 PUSH1 0x20 DUP4 ADD DUP5 PUSH2 0x691 JUMP JUMPDEST SWAP4 SWAP3 POP POP POP JUMP INVALID LOG2 PUSH5 0x6970667358 0x22 SLT KECCAK256 0x4D PUSH4 0xCA15F60A CODESIZE 0xAE PUSH1 0xB8 JUMPI ISZERO SLOAD SELFBALANCE PUSH7 0x6B2D869C2EB2AD TIMESTAMP PUSH32 0xCC4F102DDC95B49664736F6C634300081A003300000000000000000000000000 "
		},
		"gasEstimates": {
			"creation": {
				"codeDepositCost": "596400",
				"executionCost": "infinite",
				"totalCost": "infinite"
			},
			"external": {
				"activeRentals(address)": "infinite",
				"getActiveRental()": "infinite",
				"rentBike(uint256)": "infinite",
				"returnBike()": "infinite"
			}
		},
		"methodIdentifiers": {
			"activeRentals(address)": "f578470c",
			"getActiveRental()": "c4740eee",
			"rentBike(uint256)": "7ad8f224",
			"returnBike()": "60a6673c"
		}
	},
	"abi": [
		{
			"inputs": [
				{
					"internalType": "address",
					"name": "_providerContractAddress",
					"type": "address"
				}
			],
			"stateMutability": "nonpayable",
			"type": "constructor"
		},
		{
			"anonymous": false,
			"inputs": [
				{
					"indexed": true,
					"internalType": "address",
					"name": "customer",
					"type": "address"
				},
				{
					"indexed": false,
					"internalType": "uint256",
					"name": "bikeId",
					"type": "uint256"
				},
				{
					"indexed": false,
					"internalType": "uint256",
					"name": "rentalTime",
					"type": "uint256"
				}
			],
			"name": "BikeRented",
			"type": "event"
		},
		{
			"anonymous": false,
			"inputs": [
				{
					"indexed": true,
					"internalType": "address",
					"name": "customer",
					"type": "address"
				},
				{
					"indexed": false,
					"internalType": "uint256",
					"name": "bikeId",
					"type": "uint256"
				}
			],
			"name": "BikeReturned",
			"type": "event"
		},
		{
			"inputs": [
				{
					"internalType": "address",
					"name": "",
					"type": "address"
				}
			],
			"name": "activeRentals",
			"outputs": [
				{
					"internalType": "uint256",
					"name": "bikeId",
					"type": "uint256"
				},
				{
					"internalType": "uint256",
					"name": "rentalTime",
					"type": "uint256"
				},
				{
					"internalType": "bool",
					"name": "isActive",
					"type": "bool"
				}
			],
			"stateMutability": "view",
			"type": "function"
		},
		{
			"inputs": [],
			"name": "getActiveRental",
			"outputs": [
				{
					"internalType": "uint256",
					"name": "bikeId",
					"type": "uint256"
				},
				{
					"internalType": "uint256",
					"name": "rentalTime",
					"type": "uint256"
				},
				{
					"internalType": "bool",
					"name": "isActive",
					"type": "bool"
				}
			],
			"stateMutability": "view",
			"type": "function"
		},
		{
			"inputs": [
				{
					"internalType": "uint256",
					"name": "bikeId",
					"type": "uint256"
				}
			],
			"name": "rentBike",
			"outputs": [],
			"stateMutability": "payable",
			"type": "function"
		},
		{
			"inputs": [],
			"name": "returnBike",
			"outputs": [],
			"stateMutability": "nonpayable",
			"type": "function"
		}
	]
}